{
  "contractName": "medicine",
  "abi": [
    {
      "inputs": [
        {
          "internalType": "uint256",
          "name": "",
          "type": "uint256"
        }
      ],
      "name": "medicineItems",
      "outputs": [
        {
          "internalType": "uint256",
          "name": "medicineId",
          "type": "uint256"
        },
        {
          "internalType": "bytes32",
          "name": "medicineSN",
          "type": "bytes32"
        },
        {
          "internalType": "bytes32",
          "name": "medicineName",
          "type": "bytes32"
        },
        {
          "internalType": "bytes32",
          "name": "medicineBrand",
          "type": "bytes32"
        },
        {
          "internalType": "uint256",
          "name": "medicinePrice",
          "type": "uint256"
        },
        {
          "internalType": "bytes32",
          "name": "medicineStatus",
          "type": "bytes32"
        }
      ],
      "stateMutability": "view",
      "type": "function",
      "constant": true
    },
    {
      "inputs": [
        {
          "internalType": "bytes32",
          "name": "",
          "type": "bytes32"
        }
      ],
      "name": "medicineMap",
      "outputs": [
        {
          "internalType": "uint256",
          "name": "",
          "type": "uint256"
        }
      ],
      "stateMutability": "view",
      "type": "function",
      "constant": true
    },
    {
      "inputs": [
        {
          "internalType": "bytes32",
          "name": "",
          "type": "bytes32"
        }
      ],
      "name": "medicinesForSale",
      "outputs": [
        {
          "internalType": "bytes32",
          "name": "",
          "type": "bytes32"
        }
      ],
      "stateMutability": "view",
      "type": "function",
      "constant": true
    },
    {
      "inputs": [
        {
          "internalType": "bytes32",
          "name": "",
          "type": "bytes32"
        }
      ],
      "name": "medicinesManufactured",
      "outputs": [
        {
          "internalType": "bytes32",
          "name": "",
          "type": "bytes32"
        }
      ],
      "stateMutability": "view",
      "type": "function",
      "constant": true
    },
    {
      "inputs": [
        {
          "internalType": "bytes32",
          "name": "",
          "type": "bytes32"
        }
      ],
      "name": "medicinesSold",
      "outputs": [
        {
          "internalType": "bytes32",
          "name": "",
          "type": "bytes32"
        }
      ],
      "stateMutability": "view",
      "type": "function",
      "constant": true
    },
    {
      "inputs": [
        {
          "internalType": "bytes32",
          "name": "",
          "type": "bytes32"
        },
        {
          "internalType": "uint256",
          "name": "",
          "type": "uint256"
        }
      ],
      "name": "medicinesWithConsumer",
      "outputs": [
        {
          "internalType": "bytes32",
          "name": "",
          "type": "bytes32"
        }
      ],
      "stateMutability": "view",
      "type": "function",
      "constant": true
    },
    {
      "inputs": [
        {
          "internalType": "bytes32",
          "name": "",
          "type": "bytes32"
        },
        {
          "internalType": "uint256",
          "name": "",
          "type": "uint256"
        }
      ],
      "name": "medicinesWithSeller",
      "outputs": [
        {
          "internalType": "bytes32",
          "name": "",
          "type": "bytes32"
        }
      ],
      "stateMutability": "view",
      "type": "function",
      "constant": true
    },
    {
      "inputs": [
        {
          "internalType": "uint256",
          "name": "",
          "type": "uint256"
        }
      ],
      "name": "sellers",
      "outputs": [
        {
          "internalType": "uint256",
          "name": "sellerId",
          "type": "uint256"
        },
        {
          "internalType": "bytes32",
          "name": "sellerName",
          "type": "bytes32"
        },
        {
          "internalType": "bytes32",
          "name": "sellerBrand",
          "type": "bytes32"
        },
        {
          "internalType": "bytes32",
          "name": "sellerCode",
          "type": "bytes32"
        },
        {
          "internalType": "uint256",
          "name": "sellerNum",
          "type": "uint256"
        },
        {
          "internalType": "bytes32",
          "name": "sellerManager",
          "type": "bytes32"
        },
        {
          "internalType": "bytes32",
          "name": "sellerAddress",
          "type": "bytes32"
        }
      ],
      "stateMutability": "view",
      "type": "function",
      "constant": true
    },
    {
      "inputs": [
        {
          "internalType": "bytes32",
          "name": "",
          "type": "bytes32"
        },
        {
          "internalType": "uint256",
          "name": "",
          "type": "uint256"
        }
      ],
      "name": "sellersWithManufacturer",
      "outputs": [
        {
          "internalType": "bytes32",
          "name": "",
          "type": "bytes32"
        }
      ],
      "stateMutability": "view",
      "type": "function",
      "constant": true
    },
    {
      "inputs": [
        {
          "internalType": "bytes32",
          "name": "_manufacturerId",
          "type": "bytes32"
        },
        {
          "internalType": "bytes32",
          "name": "_sellerName",
          "type": "bytes32"
        },
        {
          "internalType": "bytes32",
          "name": "_sellerBrand",
          "type": "bytes32"
        },
        {
          "internalType": "bytes32",
          "name": "_sellerCode",
          "type": "bytes32"
        },
        {
          "internalType": "uint256",
          "name": "_sellerNum",
          "type": "uint256"
        },
        {
          "internalType": "bytes32",
          "name": "_sellerManager",
          "type": "bytes32"
        },
        {
          "internalType": "bytes32",
          "name": "_sellerAddress",
          "type": "bytes32"
        }
      ],
      "name": "addSeller",
      "outputs": [],
      "stateMutability": "nonpayable",
      "type": "function"
    },
    {
      "inputs": [],
      "name": "viewSellers",
      "outputs": [
        {
          "internalType": "uint256[]",
          "name": "",
          "type": "uint256[]"
        },
        {
          "internalType": "bytes32[]",
          "name": "",
          "type": "bytes32[]"
        },
        {
          "internalType": "bytes32[]",
          "name": "",
          "type": "bytes32[]"
        },
        {
          "internalType": "bytes32[]",
          "name": "",
          "type": "bytes32[]"
        },
        {
          "internalType": "uint256[]",
          "name": "",
          "type": "uint256[]"
        },
        {
          "internalType": "bytes32[]",
          "name": "",
          "type": "bytes32[]"
        },
        {
          "internalType": "bytes32[]",
          "name": "",
          "type": "bytes32[]"
        }
      ],
      "stateMutability": "view",
      "type": "function",
      "constant": true
    },
    {
      "inputs": [
        {
          "internalType": "bytes32",
          "name": "_manufactuerID",
          "type": "bytes32"
        },
        {
          "internalType": "bytes32",
          "name": "_medicineName",
          "type": "bytes32"
        },
        {
          "internalType": "bytes32",
          "name": "_medicineSN",
          "type": "bytes32"
        },
        {
          "internalType": "bytes32",
          "name": "_medicineBrand",
          "type": "bytes32"
        },
        {
          "internalType": "uint256",
          "name": "_medicinePrice",
          "type": "uint256"
        }
      ],
      "name": "addmedicine",
      "outputs": [],
      "stateMutability": "nonpayable",
      "type": "function"
    },
    {
      "inputs": [],
      "name": "viewmedicineItems",
      "outputs": [
        {
          "internalType": "uint256[]",
          "name": "",
          "type": "uint256[]"
        },
        {
          "internalType": "bytes32[]",
          "name": "",
          "type": "bytes32[]"
        },
        {
          "internalType": "bytes32[]",
          "name": "",
          "type": "bytes32[]"
        },
        {
          "internalType": "bytes32[]",
          "name": "",
          "type": "bytes32[]"
        },
        {
          "internalType": "uint256[]",
          "name": "",
          "type": "uint256[]"
        },
        {
          "internalType": "bytes32[]",
          "name": "",
          "type": "bytes32[]"
        }
      ],
      "stateMutability": "view",
      "type": "function",
      "constant": true
    },
    {
      "inputs": [
        {
          "internalType": "bytes32",
          "name": "_medicineSN",
          "type": "bytes32"
        },
        {
          "internalType": "bytes32",
          "name": "_sellerCode",
          "type": "bytes32"
        }
      ],
      "name": "manufacturerSellmedicine",
      "outputs": [],
      "stateMutability": "nonpayable",
      "type": "function"
    },
    {
      "inputs": [
        {
          "internalType": "bytes32",
          "name": "_medicineSN",
          "type": "bytes32"
        },
        {
          "internalType": "bytes32",
          "name": "_consumerCode",
          "type": "bytes32"
        }
      ],
      "name": "sellerSellmedicine",
      "outputs": [],
      "stateMutability": "nonpayable",
      "type": "function"
    },
    {
      "inputs": [
        {
          "internalType": "bytes32",
          "name": "_sellerCode",
          "type": "bytes32"
        }
      ],
      "name": "querymedicinesList",
      "outputs": [
        {
          "internalType": "uint256[]",
          "name": "",
          "type": "uint256[]"
        },
        {
          "internalType": "bytes32[]",
          "name": "",
          "type": "bytes32[]"
        },
        {
          "internalType": "bytes32[]",
          "name": "",
          "type": "bytes32[]"
        },
        {
          "internalType": "bytes32[]",
          "name": "",
          "type": "bytes32[]"
        },
        {
          "internalType": "uint256[]",
          "name": "",
          "type": "uint256[]"
        },
        {
          "internalType": "bytes32[]",
          "name": "",
          "type": "bytes32[]"
        }
      ],
      "stateMutability": "view",
      "type": "function",
      "constant": true
    },
    {
      "inputs": [
        {
          "internalType": "bytes32",
          "name": "_manufacturerCode",
          "type": "bytes32"
        }
      ],
      "name": "querySellersList",
      "outputs": [
        {
          "internalType": "uint256[]",
          "name": "",
          "type": "uint256[]"
        },
        {
          "internalType": "bytes32[]",
          "name": "",
          "type": "bytes32[]"
        },
        {
          "internalType": "bytes32[]",
          "name": "",
          "type": "bytes32[]"
        },
        {
          "internalType": "bytes32[]",
          "name": "",
          "type": "bytes32[]"
        },
        {
          "internalType": "uint256[]",
          "name": "",
          "type": "uint256[]"
        },
        {
          "internalType": "bytes32[]",
          "name": "",
          "type": "bytes32[]"
        },
        {
          "internalType": "bytes32[]",
          "name": "",
          "type": "bytes32[]"
        }
      ],
      "stateMutability": "view",
      "type": "function",
      "constant": true
    },
    {
      "inputs": [
        {
          "internalType": "bytes32",
          "name": "_consumerCode",
          "type": "bytes32"
        }
      ],
      "name": "getPurchaseHistory",
      "outputs": [
        {
          "internalType": "bytes32[]",
          "name": "",
          "type": "bytes32[]"
        },
        {
          "internalType": "bytes32[]",
          "name": "",
          "type": "bytes32[]"
        },
        {
          "internalType": "bytes32[]",
          "name": "",
          "type": "bytes32[]"
        }
      ],
      "stateMutability": "view",
      "type": "function",
      "constant": true
    },
    {
      "inputs": [
        {
          "internalType": "bytes32",
          "name": "_medicineSN",
          "type": "bytes32"
        },
        {
          "internalType": "bytes32",
          "name": "_consumerCode",
          "type": "bytes32"
        }
      ],
      "name": "verifymedicine",
      "outputs": [
        {
          "internalType": "bool",
          "name": "",
          "type": "bool"
        }
      ],
      "stateMutability": "view",
      "type": "function",
      "constant": true
    }
  ],
  "bytecode": "0x608060405234801561001057600080fd5b5061234d806100206000396000f3fe608060405234801561001057600080fd5b50600436106101215760003560e01c8063b0f2fd4f116100ad578063db41ea3311610071578063db41ea3314610398578063e262113f146103b4578063ebbf468e146103e4578063f0c1e2fa14610414578063fff8a1bd1461043057610121565b8063b0f2fd4f146102c3578063c7696447146102f3578063cc1088dc14610316578063cee26ed514610332578063cfb6846f1461036857610121565b8063538827c8116100f4578063538827c8146101cc578063599f4475146101fc5780635ebb74d4146102315780639ea4695d14610261578063ab149ca01461029357610121565b8063032f95e614610126578063044c00321461014a578063130aa81f1461017a5780631b3658c8146101b0575b600080fd5b61012e610465565b6040516101419796959493929190611d1c565b60405180910390f35b610164600480360381019061015f9190611ded565b610852565b6040516101719190611e29565b60405180910390f35b610194600480360381019061018f9190611ded565b61086a565b6040516101a79796959493929190611d1c565b60405180910390f35b6101ca60048036038101906101c59190611e70565b610d2d565b005b6101e660048036038101906101e19190611f12565b610e19565b6040516101f39190611f6d565b60405180910390f35b61021660048036038101906102119190611ded565b610e4a565b60405161022896959493929190611f88565b60405180910390f35b61024b60048036038101906102469190611ded565b611283565b6040516102589190612022565b60405180910390f35b61027b60048036038101906102769190611ded565b61129b565b60405161028a9392919061203d565b60405180910390f35b6102ad60048036038101906102a89190612089565b61146f565b6040516102ba9190612022565b60405180910390f35b6102dd60048036038101906102d89190611ded565b6114a0565b6040516102ea9190612022565b60405180910390f35b6102fb6114b8565b60405161030d96959493929190611f88565b60405180910390f35b610330600480360381019061032b9190611f12565b611820565b005b61034c600480360381019061034791906120c9565b61194a565b60405161035f97969594939291906120f6565b60405180910390f35b610382600480360381019061037d9190612089565b61198c565b60405161038f9190612022565b60405180910390f35b6103b260048036038101906103ad9190611f12565b6119bd565b005b6103ce60048036038101906103c99190612089565b611a13565b6040516103db9190612022565b60405180910390f35b6103fe60048036038101906103f99190611ded565b611a44565b60405161040b9190612022565b60405180910390f35b61042e60048036038101906104299190612165565b611a5c565b005b61044a600480360381019061044591906120c9565b611b50565b60405161045c969594939291906121e0565b60405180910390f35b60608060608060608060606000805467ffffffffffffffff81111561048d5761048c612241565b5b6040519080825280602002602001820160405280156104bb5781602001602082028036833780820191505090505b5090506000805467ffffffffffffffff8111156104db576104da612241565b5b6040519080825280602002602001820160405280156105095781602001602082028036833780820191505090505b5090506000805467ffffffffffffffff81111561052957610528612241565b5b6040519080825280602002602001820160405280156105575781602001602082028036833780820191505090505b5090506000805467ffffffffffffffff81111561057757610576612241565b5b6040519080825280602002602001820160405280156105a55781602001602082028036833780820191505090505b5090506000805467ffffffffffffffff8111156105c5576105c4612241565b5b6040519080825280602002602001820160405280156105f35781602001602082028036833780820191505090505b5090506000805467ffffffffffffffff81111561061357610612612241565b5b6040519080825280602002602001820160405280156106415781602001602082028036833780820191505090505b5090506000805467ffffffffffffffff81111561066157610660612241565b5b60405190808252806020026020018201604052801561068f5781602001602082028036833780820191505090505b50905060005b60005481101561082c5760026000828152602001908152602001600020600001548882815181106106c9576106c8612270565b5b60200260200101818152505060026000828152602001908152602001600020600101548782815181106106ff576106fe612270565b5b602002602001018181525050600260008281526020019081526020016000206002015486828151811061073557610734612270565b5b602002602001018181525050600260008281526020019081526020016000206003015485828151811061076b5761076a612270565b5b60200260200101818152505060026000828152602001908152602001600020600401548482815181106107a1576107a0612270565b5b60200260200101818152505060026000828152602001908152602001600020600501548382815181106107d7576107d6612270565b5b602002602001018181525050600260008281526020019081526020016000206006015482828151811061080d5761080c612270565b5b6020026020010181815250508080610824906122ce565b915050610695565b50868686868686869d509d509d509d509d509d509d505050505050505090919293949596565b60046020528060005260406000206000915090505481565b60608060608060608060606000600a60008a81526020019081526020016000208054806020026020016040519081016040528092919081815260200182805480156108d457602002820191906000526020600020905b8154815260200190600101908083116108c0575b50505050509050600080805467ffffffffffffffff8111156108f9576108f8612241565b5b6040519080825280602002602001820160405280156109275781602001602082028036833780820191505090505b5090506000805467ffffffffffffffff81111561094757610946612241565b5b6040519080825280602002602001820160405280156109755781602001602082028036833780820191505090505b5090506000805467ffffffffffffffff81111561099557610994612241565b5b6040519080825280602002602001820160405280156109c35781602001602082028036833780820191505090505b5090506000805467ffffffffffffffff8111156109e3576109e2612241565b5b604051908082528060200260200182016040528015610a115781602001602082028036833780820191505090505b5090506000805467ffffffffffffffff811115610a3157610a30612241565b5b604051908082528060200260200182016040528015610a5f5781602001602082028036833780820191505090505b5090506000805467ffffffffffffffff811115610a7f57610a7e612241565b5b604051908082528060200260200182016040528015610aad5781602001602082028036833780820191505090505b5090506000805467ffffffffffffffff811115610acd57610acc612241565b5b604051908082528060200260200182016040528015610afb5781602001602082028036833780820191505090505b50905060005b600054811015610d035760005b8a51811015610cef578a8181518110610b2a57610b29612270565b5b602002602001015160026000848152602001908152602001600020600301541415610cdc576002600083815260200190815260200160002060000154898b81518110610b7957610b78612270565b5b6020026020010181815250506002600083815260200190815260200160002060010154888b81518110610baf57610bae612270565b5b6020026020010181815250506002600083815260200190815260200160002060020154878b81518110610be557610be4612270565b5b6020026020010181815250506002600083815260200190815260200160002060030154868b81518110610c1b57610c1a612270565b5b6020026020010181815250506002600083815260200190815260200160002060040154858b81518110610c5157610c50612270565b5b6020026020010181815250506002600083815260200190815260200160002060050154848b81518110610c8757610c86612270565b5b6020026020010181815250506002600083815260200190815260200160002060060154838b81518110610cbd57610cbc612270565b5b6020026020010181815250508980610cd4906122ce565b9a5050610cef565b8080610ce7906122ce565b915050610b0e565b508080610cfb906122ce565b915050610b01565b50868686868686869f509f509f509f509f509f509f50505050505050505050919395979092949650565b6040518060e001604052806000548152602001878152602001868152602001858152602001848152602001838152602001828152506002600080548152602001908152602001600020600082015181600001556020820151816001015560408201518160020155606082015181600301556080820151816004015560a0820151816005015560c08201518160060155905050600080815480929190610dd1906122ce565b9190505550600a600088815260200190815260200160002084908060018154018082558091505060019003906000526020600020016000909190919091505550505050505050565b60008160076000858152602001908152602001600020541415610e3f5760019050610e44565b600090505b92915050565b606080606080606080600060086000898152602001908152602001600020805480602002602001604051908101604052809291908181526020018280548015610eb257602002820191906000526020600020905b815481526020019060010190808311610e9e575b5050505050905060008060015467ffffffffffffffff811115610ed857610ed7612241565b5b604051908082528060200260200182016040528015610f065781602001602082028036833780820191505090505b509050600060015467ffffffffffffffff811115610f2757610f26612241565b5b604051908082528060200260200182016040528015610f555781602001602082028036833780820191505090505b509050600060015467ffffffffffffffff811115610f7657610f75612241565b5b604051908082528060200260200182016040528015610fa45781602001602082028036833780820191505090505b509050600060015467ffffffffffffffff811115610fc557610fc4612241565b5b604051908082528060200260200182016040528015610ff35781602001602082028036833780820191505090505b509050600060015467ffffffffffffffff81111561101457611013612241565b5b6040519080825280602002602001820160405280156110425781602001602082028036833780820191505090505b509050600060015467ffffffffffffffff81111561106357611062612241565b5b6040519080825280602002602001820160405280156110915781602001602082028036833780820191505090505b50905060005b60015481101561125f5760005b895181101561124b578981815181106110c0576110bf612270565b5b602002602001015160036000848152602001908152602001600020600101541415611238576003600083815260200190815260200160002060000154888a8151811061110f5761110e612270565b5b6020026020010181815250506003600083815260200190815260200160002060010154878a8151811061114557611144612270565b5b6020026020010181815250506003600083815260200190815260200160002060020154868a8151811061117b5761117a612270565b5b6020026020010181815250506003600083815260200190815260200160002060030154858a815181106111b1576111b0612270565b5b6020026020010181815250506003600083815260200190815260200160002060040154848a815181106111e7576111e6612270565b5b6020026020010181815250506003600083815260200190815260200160002060050154838a8151811061121d5761121c612270565b5b6020026020010181815250508880611234906122ce565b9950505b8080611243906122ce565b9150506110a4565b508080611257906122ce565b915050611097565b508585858585859d509d509d509d509d509d50505050505050505091939550919395565b60056020528060005260406000206000915090505481565b60608060606000600960008681526020019081526020016000208054806020026020016040519081016040528092919081815260200182805480156112ff57602002820191906000526020600020905b8154815260200190600101908083116112eb575b505050505090506000815167ffffffffffffffff81111561132357611322612241565b5b6040519080825280602002602001820160405280156113515781602001602082028036833780820191505090505b5090506000825167ffffffffffffffff81111561137157611370612241565b5b60405190808252806020026020018201604052801561139f5781602001602082028036833780820191505090505b50905060005b835181101561145b57600660008583815181106113c5576113c4612270565b5b60200260200101518152602001908152602001600020548382815181106113ef576113ee612270565b5b6020026020010181815250506005600085838151811061141257611411612270565b5b602002602001015181526020019081526020016000205482828151811061143c5761143b612270565b5b6020026020010181815250508080611453906122ce565b9150506113a5565b508282829550955095505050509193909250565b6008602052816000526040600020818154811061148b57600080fd5b90600052602060002001600091509150505481565b60076020528060005260406000206000915090505481565b606080606080606080600060015467ffffffffffffffff8111156114df576114de612241565b5b60405190808252806020026020018201604052801561150d5781602001602082028036833780820191505090505b509050600060015467ffffffffffffffff81111561152e5761152d612241565b5b60405190808252806020026020018201604052801561155c5781602001602082028036833780820191505090505b509050600060015467ffffffffffffffff81111561157d5761157c612241565b5b6040519080825280602002602001820160405280156115ab5781602001602082028036833780820191505090505b509050600060015467ffffffffffffffff8111156115cc576115cb612241565b5b6040519080825280602002602001820160405280156115fa5781602001602082028036833780820191505090505b509050600060015467ffffffffffffffff81111561161b5761161a612241565b5b6040519080825280602002602001820160405280156116495781602001602082028036833780820191505090505b509050600060015467ffffffffffffffff81111561166a57611669612241565b5b6040519080825280602002602001820160405280156116985781602001602082028036833780820191505090505b50905060005b6001548110156117ff5760036000828152602001908152602001600020600001548782815181106116d2576116d1612270565b5b602002602001018181525050600360008281526020019081526020016000206001015486828151811061170857611707612270565b5b602002602001018181525050600360008281526020019081526020016000206002015485828151811061173e5761173d612270565b5b602002602001018181525050600360008281526020019081526020016000206003015484828151811061177457611773612270565b5b60200260200101818152505060036000828152602001908152602001600020600401548382815181106117aa576117a9612270565b5b60200260200101818152505060036000828152602001908152602001600020600501548282815181106117e0576117df612270565b5b60200260200101818152505080806117f7906122ce565b91505061169e565b508585858585859b509b509b509b509b509b50505050505050909192939495565b600080600080600154111561187457600091505b600154821015611873578460036000848152602001908152602001600020600101541415611860578190505b818061186b906122ce565b925050611834565b5b600360008281526020019081526020016000206005015492507f417661696c61626c650000000000000000000000000000000000000000000000831415611943577f4e410000000000000000000000000000000000000000000000000000000000006003600083815260200190815260200160002060050181905550600960008581526020019081526020016000208590806001815401808255809150506001900390600052602060002001600090919091909150558360076000878152602001908152602001600020819055505b5050505050565b60026020528060005260406000206000915090508060000154908060010154908060020154908060030154908060040154908060050154908060060154905087565b600960205281600052604060002081815481106119a857600080fd5b90600052602060002001600091509150505481565b600860008281526020019081526020016000208290806001815401808255809150506001900390600052602060002001600090919091909150558060066000848152602001908152602001600020819055505050565b600a6020528160005260406000208181548110611a2f57600080fd5b90600052602060002001600091509150505481565b60066020528060005260406000206000915090505481565b6040518060c0016040528060015481526020018481526020018581526020018381526020018281526020017f417661696c61626c650000000000000000000000000000000000000000000000815250600360006001548152602001908152602001600020600082015181600001556020820151816001015560408201518160020155606082015181600301556080820151816004015560a08201518160050155905050600154600460008581526020019081526020016000208190555060016000815480929190611b2c906122ce565b91905055508460056000858152602001908152602001600020819055505050505050565b60036020528060005260406000206000915090508060000154908060010154908060020154908060030154908060040154908060050154905086565b600081519050919050565b600082825260208201905092915050565b6000819050602082019050919050565b6000819050919050565b611bcb81611bb8565b82525050565b6000611bdd8383611bc2565b60208301905092915050565b6000602082019050919050565b6000611c0182611b8c565b611c0b8185611b97565b9350611c1683611ba8565b8060005b83811015611c47578151611c2e8882611bd1565b9750611c3983611be9565b925050600181019050611c1a565b5085935050505092915050565b600081519050919050565b600082825260208201905092915050565b6000819050602082019050919050565b6000819050919050565b611c9381611c80565b82525050565b6000611ca58383611c8a565b60208301905092915050565b6000602082019050919050565b6000611cc982611c54565b611cd38185611c5f565b9350611cde83611c70565b8060005b83811015611d0f578151611cf68882611c99565b9750611d0183611cb1565b925050600181019050611ce2565b5085935050505092915050565b600060e0820190508181036000830152611d36818a611bf6565b90508181036020830152611d4a8189611cbe565b90508181036040830152611d5e8188611cbe565b90508181036060830152611d728187611cbe565b90508181036080830152611d868186611bf6565b905081810360a0830152611d9a8185611cbe565b905081810360c0830152611dae8184611cbe565b905098975050505050505050565b600080fd5b611dca81611c80565b8114611dd557600080fd5b50565b600081359050611de781611dc1565b92915050565b600060208284031215611e0357611e02611dbc565b5b6000611e1184828501611dd8565b91505092915050565b611e2381611bb8565b82525050565b6000602082019050611e3e6000830184611e1a565b92915050565b611e4d81611bb8565b8114611e5857600080fd5b50565b600081359050611e6a81611e44565b92915050565b600080600080600080600060e0888a031215611e8f57611e8e611dbc565b5b6000611e9d8a828b01611dd8565b9750506020611eae8a828b01611dd8565b9650506040611ebf8a828b01611dd8565b9550506060611ed08a828b01611dd8565b9450506080611ee18a828b01611e5b565b93505060a0611ef28a828b01611dd8565b92505060c0611f038a828b01611dd8565b91505092959891949750929550565b60008060408385031215611f2957611f28611dbc565b5b6000611f3785828601611dd8565b9250506020611f4885828601611dd8565b9150509250929050565b60008115159050919050565b611f6781611f52565b82525050565b6000602082019050611f826000830184611f5e565b92915050565b600060c0820190508181036000830152611fa28189611bf6565b90508181036020830152611fb68188611cbe565b90508181036040830152611fca8187611cbe565b90508181036060830152611fde8186611cbe565b90508181036080830152611ff28185611bf6565b905081810360a08301526120068184611cbe565b9050979650505050505050565b61201c81611c80565b82525050565b60006020820190506120376000830184612013565b92915050565b600060608201905081810360008301526120578186611cbe565b9050818103602083015261206b8185611cbe565b9050818103604083015261207f8184611cbe565b9050949350505050565b600080604083850312156120a05761209f611dbc565b5b60006120ae85828601611dd8565b92505060206120bf85828601611e5b565b9150509250929050565b6000602082840312156120df576120de611dbc565b5b60006120ed84828501611e5b565b91505092915050565b600060e08201905061210b600083018a611e1a565b6121186020830189612013565b6121256040830188612013565b6121326060830187612013565b61213f6080830186611e1a565b61214c60a0830185612013565b61215960c0830184612013565b98975050505050505050565b600080600080600060a0868803121561218157612180611dbc565b5b600061218f88828901611dd8565b95505060206121a088828901611dd8565b94505060406121b188828901611dd8565b93505060606121c288828901611dd8565b92505060806121d388828901611e5b565b9150509295509295909350565b600060c0820190506121f56000830189611e1a565b6122026020830188612013565b61220f6040830187612013565b61221c6060830186612013565b6122296080830185611e1a565b61223660a0830184612013565b979650505050505050565b7f4e487b7100000000000000000000000000000000000000000000000000000000600052604160045260246000fd5b7f4e487b7100000000000000000000000000000000000000000000000000000000600052603260045260246000fd5b7f4e487b7100000000000000000000000000000000000000000000000000000000600052601160045260246000fd5b60006122d982611bb8565b91507fffffffffffffffffffffffffffffffffffffffffffffffffffffffffffffffff82141561230c5761230b61229f565b5b60018201905091905056fea2646970667358221220ad53f34be5665cfdbfbb9dc63a75b6702254a905300a8066b961b8ed4562e22464736f6c634300080c0033",
  "immutableReferences": {},
  "source": "// SPDX-License-Identifier: MIT\r\npragma solidity ^0.8.12;\r\n\r\ncontract medicine {\r\n\r\n    uint256 sellerCount;\r\n    uint256 medicineCount;\r\n\r\n     // Structure to store seller information\r\n    struct seller{\r\n        uint256 sellerId;\r\n        bytes32 sellerName;\r\n        bytes32 sellerBrand;\r\n        bytes32 sellerCode;\r\n        uint256 sellerNum;\r\n        bytes32 sellerManager;\r\n        bytes32 sellerAddress;\r\n    }\r\n    mapping(uint=>seller) public sellers;\r\n\r\n    // Structure to store medicine information\r\n    struct medicineItem{\r\n        uint256 medicineId;\r\n        bytes32 medicineSN;\r\n        bytes32 medicineName;\r\n        bytes32 medicineBrand;\r\n        uint256 medicinePrice;\r\n        bytes32 medicineStatus;\r\n    }\r\n\r\n    mapping(uint256=>medicineItem) public medicineItems;\r\n    mapping(bytes32=>uint256) public medicineMap;\r\n    mapping(bytes32=>bytes32) public medicinesManufactured;\r\n    mapping(bytes32=>bytes32) public medicinesForSale;\r\n    mapping(bytes32=>bytes32) public medicinesSold;\r\n    mapping(bytes32=>bytes32[]) public medicinesWithSeller;\r\n    mapping(bytes32=>bytes32[]) public medicinesWithConsumer;\r\n    mapping(bytes32=>bytes32[]) public sellersWithManufacturer;\r\n\r\n\r\n    //SELLER SECTION\r\n\r\n     // Add a new seller\r\n    function addSeller(bytes32 _manufacturerId, bytes32 _sellerName, bytes32 _sellerBrand, bytes32 _sellerCode,\r\n    uint256 _sellerNum, bytes32 _sellerManager, bytes32 _sellerAddress) public{\r\n        sellers[sellerCount] = seller(sellerCount, _sellerName, _sellerBrand, _sellerCode,\r\n        _sellerNum, _sellerManager, _sellerAddress);\r\n        sellerCount++;\r\n\r\n        sellersWithManufacturer[_manufacturerId].push(_sellerCode);\r\n    }\r\n\r\n     // View all sellers\r\n    function viewSellers () public view returns(uint256[] memory, bytes32[] memory, bytes32[] memory, bytes32[] memory, uint256[] memory, bytes32[] memory, bytes32[] memory) {\r\n        uint256[] memory ids = new uint256[](sellerCount);\r\n        bytes32[] memory snames = new bytes32[](sellerCount);\r\n        bytes32[] memory sbrands = new bytes32[](sellerCount);\r\n        bytes32[] memory scodes = new bytes32[](sellerCount);\r\n        uint256[] memory snums = new uint256[](sellerCount);\r\n        bytes32[] memory smanagers = new bytes32[](sellerCount);\r\n        bytes32[] memory saddress = new bytes32[](sellerCount);\r\n        \r\n        for(uint i=0; i<sellerCount; i++){\r\n            ids[i] = sellers[i].sellerId;\r\n            snames[i] = sellers[i].sellerName;\r\n            sbrands[i] = sellers[i].sellerBrand;\r\n            scodes[i] = sellers[i].sellerCode;\r\n            snums[i] = sellers[i].sellerNum;\r\n            smanagers[i] = sellers[i].sellerManager;\r\n            saddress[i] = sellers[i].sellerAddress;\r\n        }\r\n        return(ids, snames, sbrands, scodes, snums, smanagers, saddress);\r\n    }\r\n\r\n    //medicine SECTION\r\n\r\n    //add medicine\r\n    function addmedicine(bytes32 _manufactuerID, bytes32 _medicineName, bytes32 _medicineSN, bytes32 _medicineBrand,\r\n    uint256 _medicinePrice) public{\r\n        medicineItems[medicineCount] = medicineItem(medicineCount, _medicineSN, _medicineName, _medicineBrand,\r\n        _medicinePrice, \"Available\");\r\n        medicineMap[_medicineSN] = medicineCount;\r\n        medicineCount++;\r\n        medicinesManufactured[_medicineSN] = _manufactuerID;\r\n    }\r\n    \r\n    //view all medicines added\r\n    function viewmedicineItems () public view returns(uint256[] memory, bytes32[] memory, bytes32[] memory, bytes32[] memory, uint256[] memory, bytes32[] memory) {\r\n        uint256[] memory pids = new uint256[](medicineCount);\r\n        bytes32[] memory pSNs = new bytes32[](medicineCount);\r\n        bytes32[] memory pnames = new bytes32[](medicineCount);\r\n        bytes32[] memory pbrands = new bytes32[](medicineCount);\r\n        uint256[] memory pprices = new uint256[](medicineCount);\r\n        bytes32[] memory pstatus = new bytes32[](medicineCount);\r\n        \r\n        for(uint i=0; i<medicineCount; i++){\r\n            pids[i] = medicineItems[i].medicineId;\r\n            pSNs[i] = medicineItems[i].medicineSN;\r\n            pnames[i] = medicineItems[i].medicineName;\r\n            pbrands[i] = medicineItems[i].medicineBrand;\r\n            pprices[i] = medicineItems[i].medicinePrice;\r\n            pstatus[i] = medicineItems[i].medicineStatus;\r\n        }\r\n        return(pids, pSNs, pnames, pbrands, pprices, pstatus);\r\n    }\r\n\r\n    //SELL medicine\r\n\r\n    // Function to record the sale of medicine by a manufacturer\r\n    function manufacturerSellmedicine(bytes32 _medicineSN, bytes32 _sellerCode) public{\r\n        medicinesWithSeller[_sellerCode].push(_medicineSN);\r\n        medicinesForSale[_medicineSN] = _sellerCode;\r\n\r\n    }\r\n\r\n    // Function to record the sale of medicine by a seller to a consumer\r\n    function sellerSellmedicine(bytes32 _medicineSN, bytes32 _consumerCode) public{   \r\n        bytes32 pStatus;\r\n        uint256 i;\r\n        uint256 j=0;\r\n\r\n        if(medicineCount>0) {\r\n            for(i=0;i<medicineCount;i++) {\r\n                if(medicineItems[i].medicineSN == _medicineSN) {\r\n                    j=i;\r\n                }\r\n            }\r\n        }\r\n\r\n        pStatus = medicineItems[j].medicineStatus;\r\n        if(pStatus == \"Available\") {\r\n            medicineItems[j].medicineStatus = \"NA\";\r\n            medicinesWithConsumer[_consumerCode].push(_medicineSN);\r\n            medicinesSold[_medicineSN] = _consumerCode;\r\n        }\r\n\r\n\r\n    }\r\n\r\n    // Function to query the list of medicines available for sale by a particular seller\r\n    function querymedicinesList(bytes32 _sellerCode) public view returns(uint256[] memory, bytes32[] memory, bytes32[] memory, bytes32[] memory, uint256[] memory, bytes32[] memory){\r\n        bytes32[] memory medicineSNs = medicinesWithSeller[_sellerCode];\r\n        uint256 k=0;\r\n\r\n        uint256[] memory pids = new uint256[](medicineCount);\r\n        bytes32[] memory pSNs = new bytes32[](medicineCount);\r\n        bytes32[] memory pnames = new bytes32[](medicineCount);\r\n        bytes32[] memory pbrands = new bytes32[](medicineCount);\r\n        uint256[] memory pprices = new uint256[](medicineCount);\r\n        bytes32[] memory pstatus = new bytes32[](medicineCount);\r\n\r\n        \r\n        for(uint i=0; i<medicineCount; i++){\r\n            for(uint j=0; j<medicineSNs.length; j++){\r\n                if(medicineItems[i].medicineSN==medicineSNs[j]){\r\n                    pids[k] = medicineItems[i].medicineId;\r\n                    pSNs[k] = medicineItems[i].medicineSN;\r\n                    pnames[k] = medicineItems[i].medicineName;\r\n                    pbrands[k] = medicineItems[i].medicineBrand;\r\n                    pprices[k] = medicineItems[i].medicinePrice;\r\n                    pstatus[k] = medicineItems[i].medicineStatus;\r\n                    k++;\r\n                }\r\n            }\r\n        }\r\n        return(pids, pSNs, pnames, pbrands, pprices, pstatus);\r\n    }\r\n\r\n    // Function to query the list of sellers associated with a specific manufacturer\r\n    function querySellersList (bytes32 _manufacturerCode) public view returns(uint256[] memory, bytes32[] memory, bytes32[] memory, bytes32[] memory, uint256[] memory, bytes32[] memory, bytes32[] memory) {\r\n        bytes32[] memory sellerCodes = sellersWithManufacturer[_manufacturerCode];\r\n        uint256 k=0;\r\n        uint256[] memory ids = new uint256[](sellerCount);\r\n        bytes32[] memory snames = new bytes32[](sellerCount);\r\n        bytes32[] memory sbrands = new bytes32[](sellerCount);\r\n        bytes32[] memory scodes = new bytes32[](sellerCount);\r\n        uint256[] memory snums = new uint256[](sellerCount);\r\n        bytes32[] memory smanagers = new bytes32[](sellerCount);\r\n        bytes32[] memory saddress = new bytes32[](sellerCount);\r\n        \r\n        for(uint i=0; i<sellerCount; i++){\r\n            for(uint j=0; j<sellerCodes.length; j++){\r\n                if(sellers[i].sellerCode==sellerCodes[j]){\r\n                    ids[k] = sellers[i].sellerId;\r\n                    snames[k] = sellers[i].sellerName;\r\n                    sbrands[k] = sellers[i].sellerBrand;\r\n                    scodes[k] = sellers[i].sellerCode;\r\n                    snums[k] = sellers[i].sellerNum;\r\n                    smanagers[k] = sellers[i].sellerManager;\r\n                    saddress[k] = sellers[i].sellerAddress;\r\n                    k++;\r\n                    break;\r\n               }\r\n            }\r\n        }\r\n\r\n        return(ids, snames, sbrands, scodes, snums, smanagers, saddress);\r\n    }\r\n    \r\n    //to get purchase history of any particular consumer \r\n    function getPurchaseHistory(bytes32 _consumerCode) public view returns (bytes32[] memory, bytes32[] memory, bytes32[] memory){\r\n        bytes32[] memory medicineSNs = medicinesWithConsumer[_consumerCode];\r\n        bytes32[] memory sellerCodes = new bytes32[](medicineSNs.length);\r\n        bytes32[] memory manufacturerCodes = new bytes32[](medicineSNs.length);\r\n        for(uint i=0; i<medicineSNs.length; i++){\r\n            sellerCodes[i] = medicinesForSale[medicineSNs[i]];\r\n            manufacturerCodes[i] = medicinesManufactured[medicineSNs[i]];\r\n        }\r\n        return (medicineSNs, sellerCodes, manufacturerCodes);\r\n    }\r\n\r\n\r\n    //Verify whether medicine is genuine or not\r\n\r\n    function verifymedicine(bytes32 _medicineSN, bytes32 _consumerCode) public view returns(bool){\r\n        if(medicinesSold[_medicineSN] == _consumerCode){\r\n            return true;\r\n        }\r\n        else{\r\n            return false;\r\n        }\r\n    }\r\n}",
  "sourcePath": "E:\\MediexLedger-main (2)\\MediexLedger-main\\contracts\\medicine.sol",
  "compiler": {
    "name": "solc",
    "version": "0.8.12+commit.f00d7308.Emscripten.clang"
  },
  "schemaVersion": "3.4.16",
  "updatedAt": "2024-08-30T19:17:21.316Z",
  "networkType": "ethereum",
  "devdoc": {
    "kind": "dev",
    "methods": {},
    "version": 1
  },
  "userdoc": {
    "kind": "user",
    "methods": {},
    "version": 1
  }
}